{
  "address": "0x53622cf6a54ffde9db405f3eff66f1e770c51cd9",
  "abi": [
    {
      "type": "function",
      "name": "decrement",
      "stateMutability": "nonpayable",
      "inputs": [],
      "outputs": []
    },
    {
      "type": "function",
      "name": "increment",
      "stateMutability": "nonpayable",
      "inputs": [],
      "outputs": []
    },
    {
      "type": "function",
      "name": "x",
      "stateMutability": "view",
      "inputs": [],
      "outputs": [
        {
          "name": "",
          "type": "uint256",
          "baseType": "uint256",
          "components": null,
          "arrayLength": null,
          "arrayChildren": null
        }
      ]
    }
  ],
  "numDeployments": 1,
  "bytecode": "0x6080604052600a60005534801561001557600080fd5b50610100806100256000396000f3fe6080604052348015600f57600080fd5b5060043610603c5760003560e01c80630c55699c1460415780632baeceb714605b578063d09de08a146063575b600080fd5b604960005481565b60405190815260200160405180910390f35b60616069565b005b6061607d565b60008054908060768360a0565b9190505550565b60008054908060768360b4565b634e487b7160e01b600052601160045260246000fd5b60008160ac5760ac608a565b506000190190565b60006001820160c35760c3608a565b506001019056fea26469706673582212203fe52070931af7b9b0ff964a97d91e47c31a57ce9c145de1db83115cc3075abb64736f6c63430008140033"
}