{
  "address": "0xf7d1309c3b66e0896f5aa84db1aad96385d992d5",
  "abi": [
    {
      "type": "event",
      "name": "CampaignCreated",
      "inputs": [
        {
          "name": "id",
          "type": "uint256",
          "baseType": "uint256",
          "indexed": true,
          "components": null,
          "arrayLength": null,
          "arrayChildren": null
        },
        {
          "name": "owner",
          "type": "address",
          "baseType": "address",
          "indexed": true,
          "components": null,
          "arrayLength": null,
          "arrayChildren": null
        },
        {
          "name": "title",
          "type": "string",
          "baseType": "string",
          "indexed": false,
          "components": null,
          "arrayLength": null,
          "arrayChildren": null
        },
        {
          "name": "target",
          "type": "uint256",
          "baseType": "uint256",
          "indexed": false,
          "components": null,
          "arrayLength": null,
          "arrayChildren": null
        },
        {
          "name": "deadline",
          "type": "uint256",
          "baseType": "uint256",
          "indexed": false,
          "components": null,
          "arrayLength": null,
          "arrayChildren": null
        }
      ],
      "outputs": []
    },
    {
      "type": "event",
      "name": "DonationReceived",
      "inputs": [
        {
          "name": "id",
          "type": "uint256",
          "baseType": "uint256",
          "indexed": true,
          "components": null,
          "arrayLength": null,
          "arrayChildren": null
        },
        {
          "name": "donor",
          "type": "address",
          "baseType": "address",
          "indexed": true,
          "components": null,
          "arrayLength": null,
          "arrayChildren": null
        },
        {
          "name": "amount",
          "type": "uint256",
          "baseType": "uint256",
          "indexed": false,
          "components": null,
          "arrayLength": null,
          "arrayChildren": null
        }
      ],
      "outputs": []
    },
    {
      "type": "event",
      "name": "FundsClaimed",
      "inputs": [
        {
          "name": "id",
          "type": "uint256",
          "baseType": "uint256",
          "indexed": true,
          "components": null,
          "arrayLength": null,
          "arrayChildren": null
        },
        {
          "name": "owner",
          "type": "address",
          "baseType": "address",
          "indexed": true,
          "components": null,
          "arrayLength": null,
          "arrayChildren": null
        },
        {
          "name": "amount",
          "type": "uint256",
          "baseType": "uint256",
          "indexed": false,
          "components": null,
          "arrayLength": null,
          "arrayChildren": null
        }
      ],
      "outputs": []
    },
    {
      "type": "event",
      "name": "RefundIssued",
      "inputs": [
        {
          "name": "id",
          "type": "uint256",
          "baseType": "uint256",
          "indexed": true,
          "components": null,
          "arrayLength": null,
          "arrayChildren": null
        },
        {
          "name": "donor",
          "type": "address",
          "baseType": "address",
          "indexed": true,
          "components": null,
          "arrayLength": null,
          "arrayChildren": null
        },
        {
          "name": "amount",
          "type": "uint256",
          "baseType": "uint256",
          "indexed": false,
          "components": null,
          "arrayLength": null,
          "arrayChildren": null
        }
      ],
      "outputs": []
    },
    {
      "type": "function",
      "name": "campaigns",
      "stateMutability": "view",
      "inputs": [
        {
          "name": "",
          "type": "uint256",
          "baseType": "uint256",
          "components": null,
          "arrayLength": null,
          "arrayChildren": null
        }
      ],
      "outputs": [
        {
          "name": "owner",
          "type": "address",
          "baseType": "address",
          "components": null,
          "arrayLength": null,
          "arrayChildren": null
        },
        {
          "name": "title",
          "type": "string",
          "baseType": "string",
          "components": null,
          "arrayLength": null,
          "arrayChildren": null
        },
        {
          "name": "description",
          "type": "string",
          "baseType": "string",
          "components": null,
          "arrayLength": null,
          "arrayChildren": null
        },
        {
          "name": "target",
          "type": "uint256",
          "baseType": "uint256",
          "components": null,
          "arrayLength": null,
          "arrayChildren": null
        },
        {
          "name": "deadline",
          "type": "uint256",
          "baseType": "uint256",
          "components": null,
          "arrayLength": null,
          "arrayChildren": null
        },
        {
          "name": "amountCollected",
          "type": "uint256",
          "baseType": "uint256",
          "components": null,
          "arrayLength": null,
          "arrayChildren": null
        },
        {
          "name": "image",
          "type": "string",
          "baseType": "string",
          "components": null,
          "arrayLength": null,
          "arrayChildren": null
        },
        {
          "name": "claimed",
          "type": "bool",
          "baseType": "bool",
          "components": null,
          "arrayLength": null,
          "arrayChildren": null
        }
      ]
    },
    {
      "type": "function",
      "name": "claimFunds",
      "stateMutability": "nonpayable",
      "inputs": [
        {
          "name": "_id",
          "type": "uint256",
          "baseType": "uint256",
          "components": null,
          "arrayLength": null,
          "arrayChildren": null
        }
      ],
      "outputs": []
    },
    {
      "type": "function",
      "name": "createCampaign",
      "stateMutability": "nonpayable",
      "inputs": [
        {
          "name": "_title",
          "type": "string",
          "baseType": "string",
          "components": null,
          "arrayLength": null,
          "arrayChildren": null
        },
        {
          "name": "_description",
          "type": "string",
          "baseType": "string",
          "components": null,
          "arrayLength": null,
          "arrayChildren": null
        },
        {
          "name": "_target",
          "type": "uint256",
          "baseType": "uint256",
          "components": null,
          "arrayLength": null,
          "arrayChildren": null
        },
        {
          "name": "_deadline",
          "type": "uint256",
          "baseType": "uint256",
          "components": null,
          "arrayLength": null,
          "arrayChildren": null
        },
        {
          "name": "_image",
          "type": "string",
          "baseType": "string",
          "components": null,
          "arrayLength": null,
          "arrayChildren": null
        }
      ],
      "outputs": [
        {
          "name": "",
          "type": "uint256",
          "baseType": "uint256",
          "components": null,
          "arrayLength": null,
          "arrayChildren": null
        }
      ]
    },
    {
      "type": "function",
      "name": "donateToCampaign",
      "stateMutability": "payable",
      "inputs": [
        {
          "name": "_id",
          "type": "uint256",
          "baseType": "uint256",
          "components": null,
          "arrayLength": null,
          "arrayChildren": null
        }
      ],
      "outputs": []
    },
    {
      "type": "function",
      "name": "getCampaigns",
      "stateMutability": "view",
      "inputs": [],
      "outputs": [
        {
          "name": "",
          "type": "tuple[]",
          "baseType": "array",
          "components": null,
          "arrayLength": -1,
          "arrayChildren": {
            "name": "",
            "type": "tuple",
            "baseType": "tuple",
            "components": [
              {
                "name": "owner",
                "type": "address",
                "baseType": "address",
                "components": null,
                "arrayLength": null,
                "arrayChildren": null
              },
              {
                "name": "title",
                "type": "string",
                "baseType": "string",
                "components": null,
                "arrayLength": null,
                "arrayChildren": null
              },
              {
                "name": "description",
                "type": "string",
                "baseType": "string",
                "components": null,
                "arrayLength": null,
                "arrayChildren": null
              },
              {
                "name": "target",
                "type": "uint256",
                "baseType": "uint256",
                "components": null,
                "arrayLength": null,
                "arrayChildren": null
              },
              {
                "name": "deadline",
                "type": "uint256",
                "baseType": "uint256",
                "components": null,
                "arrayLength": null,
                "arrayChildren": null
              },
              {
                "name": "amountCollected",
                "type": "uint256",
                "baseType": "uint256",
                "components": null,
                "arrayLength": null,
                "arrayChildren": null
              },
              {
                "name": "image",
                "type": "string",
                "baseType": "string",
                "components": null,
                "arrayLength": null,
                "arrayChildren": null
              },
              {
                "name": "donors",
                "type": "address[]",
                "baseType": "array",
                "components": null,
                "arrayLength": -1,
                "arrayChildren": {
                  "name": "",
                  "type": "address",
                  "baseType": "address",
                  "components": null,
                  "arrayLength": null,
                  "arrayChildren": null
                }
              },
              {
                "name": "donations",
                "type": "uint256[]",
                "baseType": "array",
                "components": null,
                "arrayLength": -1,
                "arrayChildren": {
                  "name": "",
                  "type": "uint256",
                  "baseType": "uint256",
                  "components": null,
                  "arrayLength": null,
                  "arrayChildren": null
                }
              },
              {
                "name": "claimed",
                "type": "bool",
                "baseType": "bool",
                "components": null,
                "arrayLength": null,
                "arrayChildren": null
              }
            ],
            "arrayLength": null,
            "arrayChildren": null
          }
        }
      ]
    },
    {
      "type": "function",
      "name": "getDonors",
      "stateMutability": "view",
      "inputs": [
        {
          "name": "_id",
          "type": "uint256",
          "baseType": "uint256",
          "components": null,
          "arrayLength": null,
          "arrayChildren": null
        }
      ],
      "outputs": [
        {
          "name": "",
          "type": "address[]",
          "baseType": "array",
          "components": null,
          "arrayLength": -1,
          "arrayChildren": {
            "name": "",
            "type": "address",
            "baseType": "address",
            "components": null,
            "arrayLength": null,
            "arrayChildren": null
          }
        },
        {
          "name": "",
          "type": "uint256[]",
          "baseType": "array",
          "components": null,
          "arrayLength": -1,
          "arrayChildren": {
            "name": "",
            "type": "uint256",
            "baseType": "uint256",
            "components": null,
            "arrayLength": null,
            "arrayChildren": null
          }
        }
      ]
    },
    {
      "type": "function",
      "name": "hasReachedTarget",
      "stateMutability": "view",
      "inputs": [
        {
          "name": "_id",
          "type": "uint256",
          "baseType": "uint256",
          "components": null,
          "arrayLength": null,
          "arrayChildren": null
        }
      ],
      "outputs": [
        {
          "name": "",
          "type": "bool",
          "baseType": "bool",
          "components": null,
          "arrayLength": null,
          "arrayChildren": null
        }
      ]
    },
    {
      "type": "function",
      "name": "isCampaignActive",
      "stateMutability": "view",
      "inputs": [
        {
          "name": "_id",
          "type": "uint256",
          "baseType": "uint256",
          "components": null,
          "arrayLength": null,
          "arrayChildren": null
        }
      ],
      "outputs": [
        {
          "name": "",
          "type": "bool",
          "baseType": "bool",
          "components": null,
          "arrayLength": null,
          "arrayChildren": null
        }
      ]
    },
    {
      "type": "function",
      "name": "numberOfCampaigns",
      "stateMutability": "view",
      "inputs": [],
      "outputs": [
        {
          "name": "",
          "type": "uint256",
          "baseType": "uint256",
          "components": null,
          "arrayLength": null,
          "arrayChildren": null
        }
      ]
    }
  ],
  "numDeployments": 1,
  "bytecode": "0x6080604052600060015534801561001557600080fd5b506114c1806100256000396000f3fe6080604052600436106100865760003560e01c80632951651111610059578063295165111461013a57806342a4fda814610168578063a6b036331461017b578063d4e3dd6f1461019d578063e1e33009146101bd57600080fd5b80630588dcf01461008b57806307ca140d146100c0578063141961bc146100e45780631b55e33814610118575b600080fd5b34801561009757600080fd5b506100ab6100a6366004610e77565b6101dd565b60405190151581526020015b60405180910390f35b3480156100cc57600080fd5b506100d660015481565b6040519081526020016100b7565b3480156100f057600080fd5b506101046100ff366004610e77565b610228565b6040516100b7989796959493929190610ed6565b34801561012457600080fd5b50610138610133366004610e77565b61040e565b005b34801561014657600080fd5b5061015a610155366004610e77565b610644565b6040516100b7929190610f91565b610138610176366004610e77565b610733565b34801561018757600080fd5b5061019061089e565b6040516100b79190611018565b3480156101a957600080fd5b506100d66101b83660046111df565b610c67565b3480156101c957600080fd5b506100ab6101d8366004610e77565b610e3c565b600060015482106102095760405162461bcd60e51b81526004016102009061127b565b60405180910390fd5b5060009081526020819052604090206003810154600590910154101590565b600060208190529081526040902080546001820180546001600160a01b039092169291610254906112b2565b80601f0160208091040260200160405190810160405280929190818152602001828054610280906112b2565b80156102cd5780601f106102a2576101008083540402835291602001916102cd565b820191906000526020600020905b8154815290600101906020018083116102b057829003601f168201915b5050505050908060020180546102e2906112b2565b80601f016020809104026020016040519081016040528092919081815260200182805461030e906112b2565b801561035b5780601f106103305761010080835404028352916020019161035b565b820191906000526020600020905b81548152906001019060200180831161033e57829003601f168201915b505050505090806003015490806004015490806005015490806006018054610382906112b2565b80601f01602080910402602001604051908101604052809291908181526020018280546103ae906112b2565b80156103fb5780601f106103d0576101008083540402835291602001916103fb565b820191906000526020600020905b8154815290600101906020018083116103de57829003601f168201915b5050506009909301549192505060ff1688565b600154811061042f5760405162461bcd60e51b81526004016102009061127b565b600081815260208190526040902080546001600160a01b031633146104a65760405162461bcd60e51b815260206004820152602760248201527f4f6e6c79207468652063616d706169676e206f776e65722063616e20636c61696044820152666d2066756e647360c81b6064820152608401610200565b806004015442116104f95760405162461bcd60e51b815260206004820152601a60248201527f43616d706169676e20686173206e6f7420656e646564207965740000000000006044820152606401610200565b600981015460ff161561054e5760405162461bcd60e51b815260206004820152601f60248201527f46756e6473206861766520616c7265616479206265656e20636c61696d6564006044820152606401610200565b60098101805460ff19166001179055600581015481546040516000916001600160a01b03169083908381818185875af1925050503d80600081146105ae576040519150601f19603f3d011682016040523d82523d6000602084013e6105b3565b606091505b50509050806105fb5760405162461bcd60e51b81526020600482015260146024820152734661696c656420746f2073656e642066756e647360601b6044820152606401610200565b82546040518381526001600160a01b039091169085907fa4eb50103b0591feb0bc913f479d92af5eb7ea33e8c397b49bab52ce6af26cb59060200160405180910390a350505050565b60608060015483106106685760405162461bcd60e51b81526004016102009061127b565b6000838152602081815260409182902060078101805484518185028101850190955280855290936008909201928491908301828280156106d157602002820191906000526020600020905b81546001600160a01b031681526001909101906020018083116106b3575b505050505091508080548060200260200160405190810160405280929190818152602001828054801561072357602002820191906000526020600020905b81548152602001906001019080831161070f575b5050505050905091509150915091565b60015481106107545760405162461bcd60e51b81526004016102009061127b565b600034116107b35760405162461bcd60e51b815260206004820152602660248201527f446f6e6174696f6e20616d6f756e74206d75737420626520677265617465722060448201526507468616e20360d41b6064820152608401610200565b6000818152602081905260409020600481015442106108095760405162461bcd60e51b815260206004820152601260248201527110d85b5c185a59db881a185cc8195b99195960721b6044820152606401610200565b600781018054600181810183556000928352602080842090920180546001600160a01b03191633179055600884018054918201815583529082203491018190556005830180549192909161085e9084906112fc565b9091555050604051348152339083907f0b5b4c52969ff7329ecf7ee536409fda87812b15a8622bc6e8cdeab3aee14a269060200160405180910390a35050565b6060600060015467ffffffffffffffff8111156108bd576108bd61113c565b60405190808252806020026020018201604052801561094f57816020015b61093c60405180610140016040528060006001600160a01b0316815260200160608152602001606081526020016000815260200160008152602001600081526020016060815260200160608152602001606081526020016000151581525090565b8152602001906001900390816108db5790505b50905060005b600154811015610c6157600081815260208181526040918290208251610140810190935280546001600160a01b031683526001810180549193928492908401919061099f906112b2565b80601f01602080910402602001604051908101604052809291908181526020018280546109cb906112b2565b8015610a185780601f106109ed57610100808354040283529160200191610a18565b820191906000526020600020905b8154815290600101906020018083116109fb57829003601f168201915b50505050508152602001600282018054610a31906112b2565b80601f0160208091040260200160405190810160405280929190818152602001828054610a5d906112b2565b8015610aaa5780601f10610a7f57610100808354040283529160200191610aaa565b820191906000526020600020905b815481529060010190602001808311610a8d57829003601f168201915b50505050508152602001600382015481526020016004820154815260200160058201548152602001600682018054610ae1906112b2565b80601f0160208091040260200160405190810160405280929190818152602001828054610b0d906112b2565b8015610b5a5780601f10610b2f57610100808354040283529160200191610b5a565b820191906000526020600020905b815481529060010190602001808311610b3d57829003601f168201915b5050505050815260200160078201805480602002602001604051908101604052809291908181526020018280548015610bbc57602002820191906000526020600020905b81546001600160a01b03168152600190910190602001808311610b9e575b5050505050815260200160088201805480602002602001604051908101604052809291908181526020018280548015610c1457602002820191906000526020600020905b815481526020019060010190808311610c00575b50505091835250506009919091015460ff1615156020909101528351849084908110610c4257610c42611315565b6020026020010181905250508080610c599061132b565b915050610955565b50919050565b6000428311610cb85760405162461bcd60e51b815260206004820152601e60248201527f446561646c696e65206d75737420626520696e207468652066757475726500006044820152606401610200565b60008411610d145760405162461bcd60e51b8152602060048201526024808201527f54617267657420616d6f756e74206d75737420626520677265617465722074686044820152630616e20360e41b6064820152608401610200565b6000865111610d5d5760405162461bcd60e51b81526020600482015260156024820152745469746c652063616e6e6f7420626520656d70747960581b6044820152606401610200565b60018054600090815260208190526040902080546001600160a01b03191633178155908101610d8c8882611393565b5060028101610d9b8782611393565b5060038101859055600481018490556000600582015560068101610dbf8482611393565b5060098101805460ff191690556001546040513391907fdc26653af5b99b2da33e2ad69ee6600d9aeccc82b034501db4338309615ca23890610e06908b908a908a90611453565b60405180910390a360018054906000610e1e8361132b565b919050555060018054610e319190611478565b979650505050505050565b60006001548210610e5f5760405162461bcd60e51b81526004016102009061127b565b50600090815260208190526040902060040154421090565b600060208284031215610e8957600080fd5b5035919050565b6000815180845260005b81811015610eb657602081850181015186830182015201610e9a565b506000602082860101526020601f19601f83011685010191505092915050565b6001600160a01b038916815261010060208201819052600090610efb8382018b610e90565b90508281036040840152610f0f818a610e90565b90508760608401528660808401528560a084015282810360c0840152610f358186610e90565b91505082151560e08301529998505050505050505050565b600081518084526020808501945080840160005b83811015610f865781516001600160a01b031687529582019590820190600101610f61565b509495945050505050565b604081526000610fa46040830185610f4d565b82810360208481019190915284518083528582019282019060005b81811015610fdb57845183529383019391830191600101610fbf565b5090979650505050505050565b600081518084526020808501945080840160005b83811015610f8657815187529582019590820190600101610ffc565b60006020808301818452808551808352604092508286019150828160051b87010184880160005b8381101561112e57888303603f19018552815180516001600160a01b0316845261014088820151818a87015261107782870182610e90565b915050878201518582038987015261108f8282610e90565b606084810151908801526080808501519088015260a0808501519088015260c080850151888303828a015291935091506110c98382610e90565b9250505060e080830151868303828801526110e48382610f4d565b9250505061010080830151868303828801526111008382610fe8565b9250505061012080830151925061111a8187018415159052565b50958801959350509086019060010161103f565b509098975050505050505050565b634e487b7160e01b600052604160045260246000fd5b600082601f83011261116357600080fd5b813567ffffffffffffffff8082111561117e5761117e61113c565b604051601f8301601f19908116603f011681019082821181831017156111a6576111a661113c565b816040528381528660208588010111156111bf57600080fd5b836020870160208301376000602085830101528094505050505092915050565b600080600080600060a086880312156111f757600080fd5b853567ffffffffffffffff8082111561120f57600080fd5b61121b89838a01611152565b9650602088013591508082111561123157600080fd5b61123d89838a01611152565b95506040880135945060608801359350608088013591508082111561126157600080fd5b5061126e88828901611152565b9150509295509295909350565b60208082526017908201527f43616d706169676e20646f6573206e6f74206578697374000000000000000000604082015260600190565b600181811c908216806112c657607f821691505b602082108103610c6157634e487b7160e01b600052602260045260246000fd5b634e487b7160e01b600052601160045260246000fd5b8082018082111561130f5761130f6112e6565b92915050565b634e487b7160e01b600052603260045260246000fd5b60006001820161133d5761133d6112e6565b5060010190565b601f82111561138e57600081815260208120601f850160051c8101602086101561136b5750805b601f850160051c820191505b8181101561138a57828155600101611377565b5050505b505050565b815167ffffffffffffffff8111156113ad576113ad61113c565b6113c1816113bb84546112b2565b84611344565b602080601f8311600181146113f657600084156113de5750858301515b600019600386901b1c1916600185901b17855561138a565b600085815260208120601f198616915b8281101561142557888601518255948401946001909101908401611406565b50858210156114435787850151600019600388901b60f8161c191681555b5050505050600190811b01905550565b6060815260006114666060830186610e90565b60208301949094525060400152919050565b8181038181111561130f5761130f6112e656fea26469706673582212201744683a5786aa4560c72ab4e22ce67ae8d6e0e91b0a474e58dc623a4371432f64736f6c63430008140033"
}